:100000000C9434000C9451000C9451000C94510049
:100010000C9451000C9451000C9451000C9451001C
:100020000C9451000C9451000C9451000C9451000C
:100030000C9451000C9451000C9451000C945100FC
:100040000C9451000C9451000C943A010C94510002
:100050000C9475010C9451000C9451000C945100B7
:100060000C9451000C94510011241FBECFEFD8E026
:10007000DEBFCDBF11E0A0E0B1E0EEE6F4E002C0EB
:1000800005900D92AE36B107D9F721E0AEE6B1E0AA
:1000900001C01D92A238B207E1F70E94FD010C9445
:1000A00035020C940000CF93DF9300D000D01F9254
:1000B000CDB7DEB783E38A8319821B8288ED8C83F8
:1000C00086E08D83CE0101960E94AE01EEE6F1E05E
:1000D000119281E0E637F807D9F70F900F900F9053
:1000E0000F900F90DF91CF9108950F931F93CF93AF
:1000F000DF9300D01F92CDB7DEB761E070E08AE6F3
:1001000091E00E94BF010E94E1018823E1F368E0D1
:1001100070E08EE691E00E94D4010E94EF018823F6
:10012000E1F3809170018983809171018A83CE010E
:1001300001960E940F028C01809172018983809147
:1001400073018A83809174018B83CE0101960E9492
:100150000F0290916F01973549F018F4923581F0B4
:100160007BC0923769F0973709F076C09801235227
:1001700031092930310508F06FC0F80180836CC067
:100180000115110509F047C066E070E083E691E0D3
:100190000E94BF010E94E1018823E1F361E070E069
:1001A0008CE691E00E94BF010E94E1018823E1F307
:1001B00061E270E082E491E00E94BF010E94E101EF
:1001C0008823E1F361E070E08CE691E00E94BF01DA
:1001D0000E94E1018823E1F361E270E081E291E0B5
:1001E0000E94BF010E94E1018823E1F361E070E019
:1001F0008CE691E00E94BF010E94E1018823E1F3B7
:1002000061E270E080E091E00E94BF010E94E101A4
:100210008823E1F321C0F8013081832F64E60E9436
:100220000302805D89832AE0832F622F0E940302EC
:10023000392F0E940302905D9A83832F0E9403024C
:10024000905D9B8363E070E0CE0101960E94BF0148
:100250000E94E1018823E1F361E070E08CE691E027
:100260000E94BF010F900F900F90DF91CF911F91CF
:100270000F9108951F920F920FB60F9211242F9392
:100280003F934F938F939F93EF93FF93F8944091F5
:10029000C60020917601309177018091780190918C
:1002A000790128173907A0F48091760190917701A0
:1002B000E0917A01F0917B01E80FF91F4083809172
:1002C0007601909177010196909377018093760162
:1002D0007894FF91EF919F918F914F913F912F9142
:1002E0000F900FBE0F901F9018951F920F920FB690
:1002F0000F9211242F933F938F939F93EF93FF932C
:10030000F89480917C0190917D01019690937D01FC
:1003100080937C0120917C0130917D0180917E0150
:1003200090917F012817390768F480917C019091A2
:100330007D01E0918001F0918101E80FF91F80813A
:100340008093C6007894FF91EF919F918F913F9198
:100350002F910F900FBE0F901F901895FC01808178
:100360008093C50081818093C40082818093C00006
:1003700083818093C10084818093C200089590930B
:1003800081018093800170937F0160937E011092C0
:100390007D0110927C012091C00025FFFCCFFC0163
:1003A00080818093C600089590937B0180937A01A9
:1003B0007093790160937801109277011092760121
:1003C000089540917C0150917D0120917E013091F2
:1003D0007F0181E04217530708F480E008954091BF
:1003E000760150917701209178013091790181E077
:1003F0004217530708F480E008950E945300789450
:100400000E947500FDCF991B79E004C0991F9617D3
:1004100008F0961B881F7A95C9F780950895FC010E
:1004200088279927E89421912032E9F3293010F0A8
:100430002E30C8F32B3241F02D3239F4689404C0C9
:100440000E942D02820F911D219120532A30C0F36A
:100450001EF4909581959F4F08957AE0979F902D77
:0E046000879F802D910D11240895F894FFCFF1
:10046E0035356138313538323931346662313936A5
:10047E003636363634666439646461383534383825
:10048E00003263623638333434363339646463642D
:10049E006265666662656261343661323136663235
:1004AE0038006331636162383739633463616236B1
:1004BE0039656532343430366132613938653565C7
:0E04CE00656600415433323870003E000D0068
:00000001FF
