:100000000C9434000C9451000C9451000C94510049
:100010000C9451000C9451000C9451000C9451001C
:100020000C9451000C9451000C9451000C9451000C
:100030000C9451000C9451000C9451000C945100FC
:100040000C9451000C9451000C9405010C94510037
:100050000C9440010C9451000C9451000C945100EC
:100060000C9451000C94510011241FBECFEFD8E026
:10007000DEBFCDBF11E0A0E0B1E0E4E0F4E002C0FB
:1000800005900D92AE30B107D9F721E0AEE0B1E0B6
:1000900001C01D92A232B207E1F70E94C8010C9480
:1000A00000020C940000CF93DF9300D000D01F9289
:1000B000CDB7DEB789E18A8319821B8288ED8C83F4
:1000C00086E08D83CE0101960E947901EEE0F1E099
:1000D000119281E0E631F807D9F70F900F900F9059
:1000E0000F900F90DF91CF9108950F931F93CF93AF
:1000F000DF9300D000D0CDB7DEB761E070E080E0E4
:1001000091E00E948A010E94AC018823E1F368E03B
:1001100070E08EE091E00E949F010E94BA01882366
:10012000E1F3809110018983809111018A83CE01CE
:1001300001960E94DA01282F082F192F80911201B1
:100140008983809113018A83809114018B83CE016E
:1001500001962C830E94DA0190910F01202F973590
:1001600041F018F49235B1F041C0923799F09737C9
:10017000E9F52352263018F4F801808337C069E08E
:1001800070E082E091E00E948A010E94AC01882325
:10019000E1F32CC023522630F8F4F8013081832F8C
:1001A00064E60E94CE01805D89832AE0832F622F5E
:1001B0000E94CE01392F0E94CE01905D9A83305D5E
:1001C0003B8363E070E0CE0101960E948A010E94A9
:1001D000AC018823E1F30AC069E070E082E091E0BD
:1001E0000E948A010E94AC018823E1F361E070E083
:1001F0008CE091E00E948A010F900F900F900F9079
:10020000DF91CF911F910F9108951F920F920FB61A
:100210000F9211242F933F934F938F939F93EF93BC
:10022000FF93F8944091C600209116013091170178
:10023000809118019091190128173907A0F4809135
:10024000160190911701E0911A01F0911B01E80F3E
:10025000F91F4083809116019091170101969093A8
:100260001701809316017894FF91EF919F918F91E0
:100270004F913F912F910F900FBE0F901F901895A7
:100280001F920F920FB60F9211242F933F938F93CB
:100290009F93EF93FF93F89480911C0190911D011F
:1002A000019690931D0180931C0120911C013091B7
:1002B0001D0180911E0190911F012817390768F4D4
:1002C00080911C0190911D01E0912001F09121018C
:1002D000E80FF91F80818093C6007894FF91EF9119
:1002E0009F918F913F912F910F900FBE0F901F9074
:1002F0001895FC0180818093C50081818093C400A2
:1003000082818093C00083818093C1008481809327
:10031000C2000895909321018093200170931F01E2
:1003200060931E0110921D0110921C012091C000CB
:1003300025FFFCCFFC0180818093C6000895909337
:100340001B0180931A017093190160931801109298
:10035000170110921601089540911C0150911D0142
:1003600020911E0130911F0181E04217530708F4CC
:1003700080E00895409116015091170120911801D5
:100380003091190181E04217530708F480E0089585
:100390000E94530078940E947500FDCF991B79E06C
:1003A00004C0991F961708F0961B881F7A95C9F705
:1003B00080950895FC0188279927E894219120329F
:1003C000E9F3293010F02E30C8F32B3241F02D32F2
:1003D00039F4689404C00E94F801820F911D2191A4
:1003E00020532A30C0F31EF4909581959F4F0895B5
:1003F0007AE0979F902D879F802D910D112408956D
:04040000F894FFCF9E
:0E0404003E004E4F54205641494C44000D001E
:00000001FF
