:100000000C942A000C9447000C9447000C94470071
:100010000C9447000C9447000C9447000C94470044
:100020000C9447000C9447000C9447000C9430014A
:100030000C9447000C946A010C9447000C94470000
:100040000C9447000C9447000C9447000C94470014
:100050000C94470011241FBECFE5D4E0DEBFCDBF16
:1000600010E0A0E6B0E0E2E5F4E002C005900D92F9
:10007000AC3CB107D9F720E0ACECB0E001C01D9278
:10008000A03EB207E1F70E94E9010C9427020C940C
:100090000000CF93DF9300D000D01F92CDB7DEB722
:1000A00083E38A8319821B8288ED8C8386E88D83A3
:1000B000CE0101960E94A201ECECF0E0119280E0EA
:1000C000E43DF807D9F70F900F900F900F900F9025
:1000D000DF91CF9108950F931F93CF93DF9300D0BB
:1000E0001F92CDB7DEB761E070E088EC90E00E942F
:1000F000AE010E94CD018823E1F368E070E08CEC52
:1001000090E00E94C0010E94DB018823E1F380910E
:10011000CE0089838091CF008A83CE0101960E9410
:1001200001028C018091D00089838091D1008A8363
:100130008091D2008B83CE0101960E9401029091A2
:10014000CD00973549F018F4923581F07BC0923795
:1001500069F0973709F076C09801235331092930A7
:10016000310508F06FC0F80180836CC001151105DE
:1001700009F047C064E070E083EC90E00E94AE01BB
:100180000E94CD018823E1F361E070E08AEC90E009
:100190000E94AE010E94CD018823E1F361E270E08C
:1001A00082EA90E00E94AE010E94CD018823E1F333
:1001B00061E070E08AEC90E00E94AE010E94CD0107
:1001C0008823E1F361E270E081E890E00E94AE01F3
:1001D0000E94CD018823E1F361E070E08AEC90E0B9
:1001E0000E94AE010E94CD018823E1F361E270E03C
:1001F00080E690E00E94AE010E94CD018823E1F3E9
:1002000021C0F8013081832F64E60E94F501805DF2
:1002100089832AE0832F622F0E94F501392F0E94E3
:10022000F501905D9A83832F0E94F501905D9B8379
:1002300063E070E0CE0101960E94AE010E94CD0104
:100240008823E1F361E070E08AEC90E00E94AE0167
:100250000F900F900F90DF91CF911F910F91089504
:100260001F920F920FB60F9211242F933F934F932B
:100270008F939F93EF93FF93F8944CB12091D40008
:100280003091D5008091D6009091D700281739077A
:10029000A0F48091D4009091D500E091D800F09125
:1002A000D900E80FF91F40838091D4009091D500C8
:1002B00001969093D5008093D4007894FF91EF91AC
:1002C0009F918F914F913F912F910F900FBE0F9063
:1002D0001F9018951F920F920FB60F9211242F9313
:1002E0003F938F939F93EF93FF93F8948091DA005D
:1002F0009091DB0001969093DB008093DA002091CF
:10030000DA003091DB008091DC009091DD0028174D
:10031000390760F48091DA009091DB00E091DE0013
:10032000F091DF00E80FF91F80818CB97894FF917C
:10033000EF919F918F913F912F910F900FBE0F9052
:100340001F901895FC01808180BD818189B98281CF
:100350008BB983818AB9848180BD08959093DF0031
:100360008093DE007093DD006093DC001092DB0070
:100370001092DA005D9BFECFFC0180818CB908955C
:100380009093D9008093D8007093D7006093D600E3
:100390001092D5001092D40008954091DA00509147
:1003A000DB002091DC003091DD0081E04217530733
:1003B00008F480E008954091D4005091D500209138
:1003C000D6003091D70081E04217530708F480E04F
:1003D000089584B7806884BF84B7806884BF0E9412
:1003E000490078940E946B00FDCF991B79E004C00E
:1003F000991F961708F0961B881F7A95C9F7809564
:100400000895FC0188279927E89421912032E9F387
:10041000293010F02E30C8F32B3241F02D3239F450
:10042000689404C00E941F02820F911D21912053E5
:100430002A30C0F31EF4909581959F4F08957AE07D
:10044000979F902D879F802D910D11240895F894EA
:02045000FFCFDC
:100452003732323233626138653961366531666608
:1004620032646638376265396530303734626339F1
:100472000032636236383334343633396464636449
:100482006265666662656261343661323136663251
:1004920038006331636162383739633463616236CD
:1004A20039656532343430366132613938653565E3
:0C04B20065660041543136003E000D002C
:00000001FF
